:020000040000FA
:100000000000C62800340034F200030E8301F10022
:100010000A088A01F00004088312AC00E130831260
:1000200081000B1101308312B90083122C08831256
:10003000840070088A008301710E8300F20E720E34
:1000400009009C226A229222A5228316A001622125
:1000500083120B178B178312390803192B2883126D
:1000600085168316BE0183163E08B83E8312A6008D
:1000700000300318013EA700260883128400831372
:10008000831227188317831200088312A8002808F8
:10009000031D662883163E08B23E8312A800023074
:1000A0000318013EA9002808FE002908FF0080303F
:1000B0002B228312AA002608831284008313831242
:1000C000271883172A0883128000832883122608A2
:1000D0008312840083138312271883178312000866
:1000E0008312A800A80326088312840083138312B6
:1000F000271883172808831280008316BE0A06304B
:100100003E02031C3328063083163E020318C02823
:10011000003083128A00933083163E07031C922816
:1001200083128A0A8200C228C228C228C2289928BB
:100130009B286221C22883123D0800300319013038
:10014000BD003D080319B22802308312A7007C309D
:10015000A6008030A8002608FE002708FF00280817
:10016000CB21C22802308312A7008730A60080303E
:10017000A8002608FE002708FF002808CB21C22877
:100180008312B901831285122B2808003E30FE002D
:100190000230FF008030000000000A220000000052
:1001A00083120000AE007F08AD004030AF00023087
:1001B000B000831200002D08B1002E08B200FF30FD
:1001C000AD07031CAE033208310403195E29043065
:1001D0002F07B100B201B20D3008B2073108FE009E
:1001E0003208FF008030000000000A2200000000FA
:1001F00083120000B4007F08B3002F08FE0030080F
:10020000FF008030000000000A220000000083127E
:100210000000B600B2007F08B100B50002302F0721
:10022000B100B201B20D3008B2073108FE00320849
:10023000FF008030000000000A220000000083124E
:100240000000B200B8007F08B700B10083120000C0
:100250003308B7003408B800FF30B307031CB403F9
:1002600038083704031957293508FE003608FF00FF
:100270008030000000002B220000000083120000EC
:10028000B700310883120313840083138312000024
:10029000321883173708831203138000831200007B
:1002A000B50A0319B60AB10A0319B20A262906309B
:1002B00083120000AF070318B00AD928000000001D
:1002C0002128080083123B0883123A060319CA2921
:1002D0000A3083123C020318C029013083128A00BD
:1002E000783083123C07031C772983128A0A820024
:1002F00082299B299B299B299B299B299B299B29F7
:100300009B29C029831205108312BC0A83123A0864
:10031000A03E8312A20000300318013EA100220873
:100320008312840083138312211883178312000819
:100330008312AB00CA2983123C038312A20000304F
:10034000A0000130A1002208003C0319AD2983124E
:10035000A10DA00D013E031CA72983122B088312B7
:10036000A200A1050030A005200821040319BB2923
:1003700083120514BD29831205108312BC0ACA29F1
:10038000831205148312BC018312BA0A3A08173A81
:100390000319BA0108008312A2007F08A1007E0899
:1003A000A00083122008FE002108FF0022082B2253
:1003B0008312A30023080319092A83123B0883121E
:1003C000A3008312BB0A83122308A03EA3000030BF
:1003D0000318013EA4002008FE002108FF002208A7
:1003E0002B228312A500A00A0319A10A0319A20A4D
:1003F000230883128400831383122418831725088B
:100400008312800083123B08173A031DD129BB01D8
:10041000D1290800003A0319122A803A03191C2A2C
:10042000FF0100347E08840083137F1883170008BF
:10043000FF00840A00080800000000003922FD00C7
:10044000FE0FFF03FF0A000000003922FC007D08B8
:10045000FF007C080800003A0319322A803A031989
:10046000392A00347E08840083137F18831700081C
:1004700008007F088A007E088200080007340034E4
:10048000023400343934003401340034AC340234E2
:10049000B834003406340034033400343A340034C1
:1004A00001340034B83402343B34003401340034B5
:1004B000B93402343C34003401340034BA340234E8
:1004C0003D34003401340034BB3402343E34003453
:1004D0000134003483169F0107308312990083167C
:1004E0000516831205128316851283128512831650
:1004F00005108312051408004134443443343A345F
:1005000031343034323434340D340A34003450341D
:1005100057344D343A3425343134303430340D349A
:100520000A340034831681128111011481100115DF
:1005300083120B118B16080083160F168F160F17D8
:100540000F1483160F1DA12A0800383083169F0050
:100550000D3083129F000800003400340034003452
:10056000003400340A343234013402340234FA34B0
:080570000034003400340034B3
:02400E00D433A9
:00000001FF
