:020000040000FA
:100000000000212800340034F200030E8301F100C7
:100010000A088A01F00004088316AD0083308312B9
:1000200081000B1101308316BB0083162D0883124B
:10003000840070088A008301710E8300F20E720E34
:1000400009002830FE000230FF0080300000000070
:10005000AF210000000083160000AF007F08AE0053
:100060002A30B0000230B100831600002E08B20022
:100070002F08B300FF30AE07031CAF033308320470
:100080000319B92804303007B200B301B30D3108A9
:10009000B3073208FE003308FF0080300000000084
:1000A000AF210000000083160000B5007F08B400F7
:1000B0003008FE003108FF00803000000000AF2152
:1000C0000000000083160000B700B3007F08B200F4
:1000D000B60002303007B200B301B30D3108B307E8
:1000E0003208FE003308FF00803000000000AF211E
:1000F0000000000083160000B300B9007F08B800BC
:10010000B200831600003408B8003508B900FF308B
:10011000B407031CB503390838040319B22836089C
:10012000FE003708FF00803000000000D0210000F2
:10013000000083160000B800320883120313840005
:1001400083138316000033188317380883120313B0
:10015000800083160000B60A0319B70AB20A031911
:10016000B30A8128063083160000B0070318B10ACD
:10017000342800000000BD28080064223C225A22D6
:100180006D2283120B178B17AA3073215530732100
:10019000A530732183163B080319CA28063083163D
:1001A0003A02031803290230FF003A08E3218316BC
:1001B000A8007F08A7004E3EA70028080318280FB4
:1001C000023EA8002708FE002808FF008030AF216B
:1001D0008316AA007F08A90083163C088316A7008F
:1001E000A8012908FD002A08FE002708FF000030AA
:1001F00026218316A8007F08A700280403190329D5
:100200008316BA0ACE28063083163A020318192933
:10021000013083128A00133083163A07031C122917
:1002200083128A0A8200CA28CA28CA28CA28CA2869
:10023000CA288316BA018316BB018316BC0AFA309A
:100240003C02031CCA28BC01CA2808008312000013
:10025000A1007F08A0007E08A3007D08A200A401E1
:10026000A5018312000023088039031D0130A60078
:100270002608031D52290310A20DA30D23082102F5
:10028000031D44292208200203184C29031083125D
:100290000000A30CA20C522983120000A50A250815
:1002A000A40031298312000023082102031D5A29CA
:1002B00022082002031C6429831200002208A002E5
:1002C0002308031C230FA102031083120000A30CB8
:1002D000A20C2408A500A4032508031D5229200808
:1002E000FF00210808008316A2001230FF00003032
:1002F0000E22831205101230FF0000300E228316EA
:10030000A3010830831623020318AC292208A40095
:100310002308003C031991298316A40C013E031CF9
:100320008C2983162408A50001302505A400A60108
:100330002408013A031DA3292608003A031DA32916
:1003400083120514A529831205101230FF00003016
:100350000E228316A30A8129831205140800003A8D
:100360000319B729803A0319C129FF0100347E0817
:10037000840083137F1883170008FF00840A000895
:10038000080000000000DE21FD00FE0FFF03FF0A51
:1003900000000000DE21FC007D08FF007C08080052
:1003A000003A0319D729803A0319DE2900347E0860
:1003B000840083137F188317000808007F088A00D1
:1003C0007E088200080083120000A7007F08A800B2
:1003D000A901AA01AB010830831200002B02031807
:1003E000082A0310A90DAA0DA71FFF290030AD0090
:1003F0002808AC00A9072D0803182D0FAA0783129F
:1004000000002708AC0003102C0DA700AB0AEB2955
:10041000831200002908FF002A0808008316AC0098
:100420007F08AB008316A001A10183162C08831658
:100430002102031D1F2A83162B088316200203188E
:10044000272A00008316A00A0319A10A152A08000A
:100450000334003402340034BB340034013400343B
:1004600003340034BC3400340134003474340234B6
:10047000BD3400340134003483169F0107308312E9
:1004800099008316051683120512831685128312AE
:100490008512831605108312051408000A340034EF
:1004A0006434003401340034023400340134003444
:1004B000FA34003483168112811101108114011164
:1004C00083120B118B16080083160F168F160F1749
:1004D0000F1483160F1D692A0800383083169F00F9
:0A04E0000D3083129F000800003465
:02400E00D433A9
:00000001FF
