:020000040000FA
:10000000000002286330FE000130FF008030000055
:100010000000DA200000000083160000A1007F0825
:10002000A0006530A2000130A30083160000200864
:10003000A4002108A500FF30A007031CA103250888
:10004000240403199A2804302207A400A501A50D51
:100050002308A5072408FE002508FF0080300000C3
:100060000000DA200000000083160000A7007F08CF
:10007000A6002208FE002308FF00803000000000D8
:10008000DA200000000083160000A900A5007F0808
:10009000A400A80002302207A400A501A50D230892
:1000A000A5072408FE002508FF008030000000009E
:1000B000DA200000000083160000A500AB007F08D6
:1000C000AA00A400831600002608AA002708AB0097
:1000D000FF30A607031CA7032B082A040319932843
:1000E0002808FE002908FF00803000000000FB20E7
:1000F0000000000083160000AA00240883120313E6
:100100008400831383160000251883172A0883129E
:100110000313800083160000A80A0319A90AA40A81
:100120000319A50A6228063083160000A2070318E7
:10013000A30A1528000000002E2908008316AE002F
:100140001230FF0000304921831205101230FF00E9
:10015000003049218316AF01083083162F0203189F
:10016000D7282E08B0002F08003C0319BC2883169E
:10017000B00C013E031CB72883163008B1000130D3
:100180003105B000B2013008013A031DCE28320813
:10019000003A031DCE2883120514D02883120510BF
:1001A0001230FF00003049218316AF0AAC288312B9
:1001B00005140800003A0319E228803A0319EC28D4
:1001C000FF0100347E08840083137F188317000822
:1001D000FF00840A00080800000000000921FD005B
:1001E000FE0FFF03FF0A000000000921FC007D084C
:1001F000FF007C080800003A03190229803A03191D
:10020000092900347E08840083137F1883170008AF
:1002100008007F088A007E08820008008316AE006E
:100220002E080319202983128516B830FF000B30E1
:10023000492183128512B830FF000B304921132960
:10024000831285163030FF007530492183128512E4
:100250003030FF00753049212029080083161F081F
:10026000F0399F008F399F008312190807389900D1
:1002700083168512831285128316051083120514C6
:10028000AA309E20AA309E20AA309E2000300E2147
:1002900008008316B4007F08B3008316AC01AD01DB
:1002A0008316340883162D02031D5A29831633083A
:1002B00083162C020318622900008316AC0A031966
:1002C000AD0A50290800013400346B340134B534D0
:0802D000003401340034003455
:02400E00D433A9
:00000001FF
