:020000040000FA
:1000000000000C2B00340034F200030E8301F100D9
:100010000A088A01F00004088312BF00E13083124D
:1000200081000B1101308312CC0083123F08831230
:10003000840070088A008301710E8300F20E720E34
:10004000090083160000A3007F08A2007E08A1001B
:100050007D08A0007C08A7007B08A6007A08A50000
:10006000790883160000B00083160000A400200861
:1000700083160000AC0083160000210883160000E0
:10008000AD0083160000220883160000AE00831620
:100090000000230883160000AF0083160000250827
:1000A00083160000B10083160000260883160000A6
:1000B000B20083160000270883160000B3008316E1
:1000C00000002C0883160000A000831600003208F0
:1000D00083160000A100FF00200800000000ED24AE
:1000E0000000000083160000A1007F08A000831616
:1000F0000000B60083160000A2002108A3008316AA
:100100000000B700831600002C0883160000A00032
:1001100083160000300883160000A100FF002008AD
:1001200000000000ED240000000083160000A10084
:100130007F08A00083160000B40083160000A20010
:100140002108A30083160000B500370883160000BD
:10015000A000831600002F0883160000A10083165C
:100160000000300883160000A200FF0021080000F4
:100170000000ED24000000007F0883160000A100AD
:10018000A007200883160000B700831600002E0881
:1001900083160000A10083160000310883160000BA
:1001A000A200FF00210800000000ED240000000074
:1001B0007F0883160000A100A00720088316000016
:1001C000B700360883160000A00083160000370829
:1001D00083160000A100831600002E08831600007D
:1001E000A20083160000300883160000A300FF0061
:1001F000220800000000ED2400000000831600002B
:10020000A3007F08A2002008A4002108A50023085D
:10021000A1002208A0002407A2002508A3002108AD
:100220000318210FA307220883160000B6008316C7
:100230000000A000230883160000B700831600000A
:10024000A100831600002D0883160000A20083166B
:100250000000310883160000A300FF002208000000
:100260000000ED240000000083160000A3007F08BA
:10027000A2002008A4002108A5002308A10022084C
:10028000A0002407A2002508A30021080318210FBD
:10029000A307220883160000B60083160000A00002
:1002A000230883160000B70083160000A100831600
:1002B00000002D0883160000A000831600003208FD
:1002C00083160000A100FF00200800000000ED24BC
:1002D000000000007F0883160000A00083160000C5
:1002E000AF002D0883160000A00083160000300820
:1002F00083160000A100FF00200800000000ED248C
:100300000000000083160000A1007F08A0008316F3
:100310000000AD0083160000A2002108A300831690
:100320000000AE002C0883160000A0008316000019
:10033000330883160000A100FF0020080000000021
:10034000ED24000000007F0883160000A000831643
:100350000000B300831600002C0883160000A000E4
:1003600083160000310883160000A100FF0020085A
:1003700000000000ED240000000083160000A30030
:10038000A1007F08A00083160000B10083160000C2
:10039000A200230883160000B200B00183160000FB
:1003A000AC0183160000340883160000A0008316F9
:1003B0000000350883160000A100831600003608EF
:1003C00083160000A2008316000037088316000081
:1003D000A300831600002C0883160000A800A400C8
:1003E000831600002D0883160000A900A5008316BF
:1003F00000002E0883160000AA00A6008316000045
:100400002F0883160000AB00A7002808A400A0074F
:1004100025080318250FA10726080318260FA20791
:1004200027080318270FA307200883160000B4002D
:1004300083160000210883160000B5008316000013
:10044000220883160000B6008316000023088316D6
:100450000000B70083160000300883160000A400D7
:1004600083160000310883160000A900A50083163A
:100470000000320883160000AA00A60083160000C0
:10048000330883160000AB00A7002A08A6002B083B
:10049000A7002408A800A400A0072908A5000318A5
:1004A000250FA10726080318260FA20727080318FF
:1004B000270FA3072008FD002108FE002208FF00E7
:1004C00023080800831245088312BA0083124608E5
:1004D0008312BB00831247088312BC00BD01831244
:1004E0004008F9004108FA004208FB004308FC00FC
:1004F00083123A08FD003B08FE003C08FF00003074
:1005000023248312BD007F08BC007E08BB007D0849
:10051000BA00831240078312BA00831241080318FD
:10052000410A0319952A8312BB0783124208031854
:10053000420A03199D2A8312BC0783124308031839
:10054000430A0319A52A8312BD07031083123D0C29
:100550008312C30083123C0C8312C20083123B0C33
:100560008312C10083123A0C8312C0000030430290
:10057000031DC42A00304202031DC42A0030410278
:10058000031DC42ADD304002031CCC2A83128512CD
:100590001211950105110B2B003083124302031D2C
:1005A000DB2A00304202031DDB2A00304102031D1A
:1005B000DB2A833040020318E32A831285161211C6
:1005C000950105150B2B831240088312BA00BB005E
:1005D0007E303B07BA005A3CBA003A0983129300B6
:1005E0008312BA018312851EF72A8312BA0A831274
:1005F0003A08003003190130BB00BA003A0C031866
:10060000032B83128512031C072B831285160F30D0
:1006100083129500121508001830FE000530FF0007
:10062000803000000000B9240000000083120000A8
:10063000AF007F08AE001A30B0000530B100831261
:1006400000002E08B2002F08B300FF30AE07031CD5
:10065000AF03330832040319A42B04303007B2006F
:10066000B301B30D3108B3073208FE003308FF00B1
:10067000803000000000B924000000008312000058
:10068000B5007F08B4003008FE003108FF0080305C
:1006900000000000B9240000000083120000B70031
:1006A000B3007F08B200B60002303007B200B301D9
:1006B000B30D3108B3073208FE003308FF00803065
:1006C00000000000B9240000000083120000B30005
:1006D000B9007F08B800B200831200003408B800E7
:1006E0003508B900FF30B407031CB50339083804D6
:1006F00003199D2B3608FE003708FF0080300000EC
:100700000000DA240000000083120000B800320864
:10071000831203138400831383120000331883179A
:10072000380883120313800083120000B60A0319ED
:10073000B70AB20A0319B30A6C2B06308312000001
:10074000B0070318B10A1F2B000000007D2C080021
:1007500083129F18A82B1E088312C800C9014808DD
:10076000C900C80183161E088312BA00BB013A08EB
:100770008312C8040030C90483129F1483124508F1
:100780008312BA00831246088312BB008312470803
:100790008312BC00BD013A088312C40283123B08D5
:1007A000031C3B0A0319D62B8312C50283123C0893
:1007B000031C3C0A0319DE2B8312C60283123D0878
:1007C000031C3D0A0319E62B8312C7028312480853
:1007D0008312BA00831249088312BB00BC01BD0119
:1007E0003A08F9003B08FA000030FB000030FC003A
:1007F0003A08FD003B08FE000030FF0000302120D9
:100800008312BD007F08BC007E08BB007D08BA00D3
:100810008312C40783123B0803183B0A0319122CE6
:100820008312C50783123C0803183C0A03191A2CCB
:100830008312C60783123D0803183D0A0319222CB0
:100840008312C707080083120000A3007F08A200DC
:100850007E08A1007D08A0007C08A7007B08A600F8
:100860007A08A5007908A400A801A901AA01AB0192
:100870002030AC008312000023088039031D0130B2
:10088000AD000310A00DA10DA20DA30D0310A80D26
:10089000A90DAA0DAB0D2D08031D281427082B0246
:1008A000031D5C2C26082A02031D5C2C2508290246
:1008B000031D5C2C24082802031C6F2C83120000EB
:1008C0002408A8022508031C250FA9022608031CDA
:1008D000260FAA022708031C270FAB02201483123D
:1008E0000000AC032C08031D3A2C2008FD00210851
:1008F000FE002208FF00230808005D25322553254D
:100900004425662583120B178B1783124C08031995
:10091000852CCC01640083124A038312BE0083122B
:10092000CA0083123E08031DA02C7130FE00053062
:10093000FF008030DA248312BE008312CA00A8238D
:1009400083124B088312BE00BE033E088312CB0005
:1009500083123E08031D852C7230FE000530FF0017
:100960008030DA248312BE008312CB006222852CF1
:100970000800003A0319C12C803A0319CB2CFF015F
:1009800000347E08840083137F1883170008FF005B
:10099000840A0008080000000000E824FD00FE0FA3
:1009A000FF03FF0A00000000E824FC007D08FF00B0
:1009B0007C080800003A0319E12C803A0319E82C5E
:1009C00000347E08840083137F1883170008080012
:1009D0007F088A007E088200080083160000B800A5
:1009E0007F08B900BA01BB01BC01083083160000C2
:1009F0003C020318122D0310BA0DBB0DB81F092DB0
:100A00000030BE003908BD00BA073E0803183E0F8B
:100A1000BB07831600003808BD0003103D0DB80069
:100A2000BC0AF52C831600003A08FF003B080800BA
:100A300004340034023400344A34003402340034C4
:100A4000733405344C340034013400346D340534CF
:100A50004434003404340034743405344D340034E8
:100A60000134003483169F010730831299008316E6
:100A700005168312051283168512831285128316BA
:100A800005118312051108008312121092109211A1
:100A90001212921212131215FF30831692000F30A9
:100AA00083129500080083168112811101148110B0
:100AB000011583120B118B16080083160F168F1663
:100AC0000F170F1483160F1D622D08003830831680
:100AD0009F008D3083129F000800003410340034D2
:0A0AE00000340534FA340034003409
:02400E00DC33A1
:00000001FF
