:020000040000FA
:100000000000182B00340034F200030E8301F100CD
:100010000A088A01F00004088312BF00E13083124D
:1000200081000B1101308312CC0083123F08831230
:10003000840070088A008301710E8300F20E720E34
:10004000090083160000A3007F08A2007E08A1001B
:100050007D08A0007C08A7007B08A6007A08A50000
:10006000790883160000B00083160000A400200861
:1000700083160000AC0083160000210883160000E0
:10008000AD0083160000220883160000AE00831620
:100090000000230883160000AF0083160000250827
:1000A00083160000B10083160000260883160000A6
:1000B000B20083160000270883160000B3008316E1
:1000C00000002C0883160000A000831600003208F0
:1000D00083160000A100FF00200800000000F924A2
:1000E0000000000083160000A1007F08A000831616
:1000F0000000B60083160000A2002108A3008316AA
:100100000000B700831600002C0883160000A00032
:1001100083160000300883160000A100FF002008AD
:1001200000000000F9240000000083160000A10078
:100130007F08A00083160000B40083160000A20010
:100140002108A30083160000B500370883160000BD
:10015000A000831600002F0883160000A10083165C
:100160000000300883160000A200FF0021080000F4
:100170000000F924000000007F0883160000A100A1
:10018000A007200883160000B700831600002E0881
:1001900083160000A10083160000310883160000BA
:1001A000A200FF00210800000000F9240000000068
:1001B0007F0883160000A100A00720088316000016
:1001C000B700360883160000A00083160000370829
:1001D00083160000A100831600002E08831600007D
:1001E000A20083160000300883160000A300FF0061
:1001F000220800000000F92400000000831600001F
:10020000A3007F08A2002008A4002108A50023085D
:10021000A1002208A0002407A2002508A3002108AD
:100220000318210FA307220883160000B6008316C7
:100230000000A000230883160000B700831600000A
:10024000A100831600002D0883160000A20083166B
:100250000000310883160000A300FF002208000000
:100260000000F9240000000083160000A3007F08AE
:10027000A2002008A4002108A5002308A10022084C
:10028000A0002407A2002508A30021080318210FBD
:10029000A307220883160000B60083160000A00002
:1002A000230883160000B70083160000A100831600
:1002B00000002D0883160000A000831600003208FD
:1002C00083160000A100FF00200800000000F924B0
:1002D000000000007F0883160000A00083160000C5
:1002E000AF002D0883160000A00083160000300820
:1002F00083160000A100FF00200800000000F92480
:100300000000000083160000A1007F08A0008316F3
:100310000000AD0083160000A2002108A300831690
:100320000000AE002C0883160000A0008316000019
:10033000330883160000A100FF0020080000000021
:10034000F924000000007F0883160000A000831637
:100350000000B300831600002C0883160000A000E4
:1003600083160000310883160000A100FF0020085A
:1003700000000000F9240000000083160000A30024
:10038000A1007F08A00083160000B10083160000C2
:10039000A200230883160000B200B00183160000FB
:1003A000AC0183160000340883160000A0008316F9
:1003B0000000350883160000A100831600003608EF
:1003C00083160000A2008316000037088316000081
:1003D000A300831600002C0883160000A800A400C8
:1003E000831600002D0883160000A900A5008316BF
:1003F00000002E0883160000AA00A6008316000045
:100400002F0883160000AB00A7002808A400A0074F
:1004100025080318250FA10726080318260FA20791
:1004200027080318270FA307200883160000B4002D
:1004300083160000210883160000B5008316000013
:10044000220883160000B6008316000023088316D6
:100450000000B70083160000300883160000A400D7
:1004600083160000310883160000A900A50083163A
:100470000000320883160000AA00A60083160000C0
:10048000330883160000AB00A7002A08A6002B083B
:10049000A7002408A800A400A0072908A5000318A5
:1004A000250FA10726080318260FA20727080318FF
:1004B000270FA3072008FD002108FE002208FF00E7
:1004C0002308080083124308420441044004031D2A
:1004D0006E2A0130C000C101C201C3018312450868
:1004E0008312BA00831246088312BB0083124708A6
:1004F0008312BC00BD0183124008F9004108FA00D4
:100500004208FB004308FC0083123A08FD003B0848
:10051000FE003C08FF0000302F248312BD007F083E
:10052000BC007E08BB007D08BA008312400783121E
:10053000BA00831241080318410A0319A12A831241
:10054000BB07831242080318420A0319A92A83121F
:10055000BC07831243080318430A0319B12A831204
:10056000BD07031083123D0C8312C30083123C0CA1
:100570008312C20083123B0C8312C10083123A0C17
:100580008312C00000304302031DD02A0030420213
:10059000031DD02A00304102031DD02ADD30400265
:1005A000031CD82A83128512121195010511172BED
:1005B000003083124302031DE72A00304202031D6C
:1005C000E72A00304102031DE72A83304002031866
:1005D000EF2A83128516121195010515172B831228
:1005E00040088312BA00BB007E303B07BA005A3C79
:1005F000BA003A09831293008312BA018312851E4E
:10060000032B8312BA0A83123A080030031901300F
:10061000BB00BA003A0C03180F2B83128512031C7F
:10062000132B831285160F308312950012150800C4
:100630002430FE000530FF00803000000000C5249B
:100640000000000083120000AF007F08AE002630DB
:10065000B0000530B100831200002E08B2002F0850
:10066000B300FF30AE07031CAF0333083204031995
:10067000B02B04303007B200B301B30D3108B3071B
:100680003208FE003308FF00803000000000C5245F
:100690000000000083120000B5007F08B40030089D
:1006A000FE003108FF00803000000000C52400007B
:1006B000000083120000B700B3007F08B200B6004C
:1006C00002303007B200B301B30D3108B30732086E
:1006D000FE003308FF00803000000000C524000049
:1006E000000083120000B300B9007F08B800B20018
:1006F000831200003408B8003508B900FF30B40791
:10070000031CB503390838040319A92B3608FE0069
:100710003708FF00803000000000E62400000000E1
:1007200083120000B800320883120313840083137D
:1007300083120000331883173808831203138000D4
:1007400083120000B60A0319B70AB20A0319B30AE2
:10075000782B063083120000B0070318B10A2B2B48
:1007600000000000892C080083129F18B42B1E087B
:100770008312C800C9014808C900C80183161E08B1
:100780008312BA00BB013A088312C8040030C904BE
:1007900083129F14831245088312BA0083124608FD
:1007A0008312BB00831247088312BC00BD013A08C4
:1007B0008312C40283123B08031C3B0A0319E22B79
:1007C0008312C50283123C08031C3C0A0319EA2B5E
:1007D0008312C60283123D08031C3D0A0319F22B43
:1007E0008312C702831248088312BA008312490891
:1007F0008312BB00BC01BD013A08F9003B08FA00B6
:100800000030FB000030FC003A08FD003B08FE0011
:100810000030FF00003021208312BD007F08BC00A3
:100820007E08BB007D08BA008312C40783123B0810
:1008300003183B0A03191E2C8312C50783123C08B8
:1008400003183C0A0319262C8312C60783123D089D
:1008500003183D0A03192E2C8312C70708008312C0
:100860000000A3007F08A2007E08A1007D08A00070
:100870007C08A7007B08A6007A08A5007908A400D8
:10088000A801A901AA01AB012030AC00831200002D
:1008900023088039031D0130AD000310A00DA10D08
:1008A000A20DA30D0310A80DA90DAA0DAB0D2D08C7
:1008B000031D281427082B02031D682C26082A0272
:1008C000031D682C25082902031D682C2408280212
:1008D000031C7B2C831200002408A8022508031C9B
:1008E000250FA9022608031C260FAA022708031CAD
:1008F000270FAB02201483120000AC032C08031D49
:10090000462C2008FD002108FE002208FF002308D5
:1009100008006F25442565255625782583120B1779
:100920008B1783124C080319912CCC01640083129D
:100930004A038312BE008312CA0083123E08031DBD
:10094000AC2C8730FE000530FF008030E624831297
:10095000BE008312CA00B42383124B088312BE0068
:10096000BE033E088312CB0083123E08031D912C68
:100970008830FE000530FF008030E6248312BE0080
:100980008312CB006222912C0800003A0319CD2C6F
:10099000803A0319D72CFF0100347E0884008313AA
:1009A0007F1883170008FF00840A00080800000071
:1009B0000000F424FD00FE0FFF03FF0A000000000A
:1009C000F424FC007D08FF007C080800003A0319AD
:1009D000ED2C803A0319F42C00347E088400831334
:1009E0007F188317000808007F088A007E088200AD
:1009F000080083160000B8007F08B900BA01BB01E7
:100A0000BC010830831600003C0203181E2D0310A1
:100A1000BA0DBB0DB81F152D0030BE003908BD0042
:100A2000BA073E0803183E0FBB07831600003808BC
:100A3000BD0003103D0DB800BC0A012D8316000057
:100A40003A08FF003B080800053400340234003443
:100A50004A34003402340034893405344C340034D0
:100A6000013400347F34053440340034043400341D
:100A70008334053444340034043400348A34053477
:100A80004D3400340134003483169F010730831243
:100A90009900831605168312051283168512831298
:100AA0008512831605118312051108008312121096
:100AB000921092111212921212131215FF30831615
:100AC00092000F3083129500080083168112811165
:100AD00001148110011583120B118B160800831667
:100AE0000F168F160F170F1483160F1D742D080085
:100AF000383083169F008D3083129F000800003429
:100B00000034003400340034103400340034053430
:060B1000FA340034003449
:02400E00DC33A1
:00000001FF
