:020000040000FA
:100000000000112B00340034F200030E8301F100D4
:100010000A088A01F00004088312C300E130831249
:1000200081000B1101308312DF0083124308831219
:10003000840070088A008301710E8300F20E720E34
:10004000090083160000A3007F08A2007E08A1001B
:100050007D08A0007C08A7007B08A6007A08A50000
:10006000790883160000B00083160000A400200861
:1000700083160000AC0083160000210883160000E0
:10008000AD0083160000220883160000AE00831620
:100090000000230883160000AF0083160000250827
:1000A00083160000B10083160000260883160000A6
:1000B000B20083160000270883160000B3008316E1
:1000C00000002C0883160000A000831600003208F0
:1000D00083160000A100FF00200800000000AE25EC
:1000E0000000000083160000A1007F08A000831616
:1000F0000000B60083160000A2002108A3008316AA
:100100000000B700831600002C0883160000A00032
:1001100083160000300883160000A100FF002008AD
:1001200000000000AE250000000083160000A100C2
:100130007F08A00083160000B40083160000A20010
:100140002108A30083160000B500370883160000BD
:10015000A000831600002F0883160000A10083165C
:100160000000300883160000A200FF0021080000F4
:100170000000AE25000000007F0883160000A100EB
:10018000A007200883160000B700831600002E0881
:1001900083160000A10083160000310883160000BA
:1001A000A200FF00210800000000AE2500000000B2
:1001B0007F0883160000A100A00720088316000016
:1001C000B700360883160000A00083160000370829
:1001D00083160000A100831600002E08831600007D
:1001E000A20083160000300883160000A300FF0061
:1001F000220800000000AE25000000008316000069
:10020000A3007F08A2002008A4002108A50023085D
:10021000A1002208A0002407A2002508A3002108AD
:100220000318210FA307220883160000B6008316C7
:100230000000A000230883160000B700831600000A
:10024000A100831600002D0883160000A20083166B
:100250000000310883160000A300FF002208000000
:100260000000AE250000000083160000A3007F08F8
:10027000A2002008A4002108A5002308A10022084C
:10028000A0002407A2002508A30021080318210FBD
:10029000A307220883160000B60083160000A00002
:1002A000230883160000B70083160000A100831600
:1002B00000002D0883160000A000831600003208FD
:1002C00083160000A100FF00200800000000AE25FA
:1002D000000000007F0883160000A00083160000C5
:1002E000AF002D0883160000A00083160000300820
:1002F00083160000A100FF00200800000000AE25CA
:100300000000000083160000A1007F08A0008316F3
:100310000000AD0083160000A2002108A300831690
:100320000000AE002C0883160000A0008316000019
:10033000330883160000A100FF0020080000000021
:10034000AE25000000007F0883160000A000831681
:100350000000B300831600002C0883160000A000E4
:1003600083160000310883160000A100FF0020085A
:1003700000000000AE250000000083160000A3006E
:10038000A1007F08A00083160000B10083160000C2
:10039000A200230883160000B200B00183160000FB
:1003A000AC0183160000340883160000A0008316F9
:1003B0000000350883160000A100831600003608EF
:1003C00083160000A2008316000037088316000081
:1003D000A300831600002C0883160000A800A400C8
:1003E000831600002D0883160000A900A5008316BF
:1003F00000002E0883160000AA00A6008316000045
:100400002F0883160000AB00A7002808A400A0074F
:1004100025080318250FA10726080318260FA20791
:1004200027080318270FA307200883160000B4002D
:1004300083160000210883160000B5008316000013
:10044000220883160000B6008316000023088316D6
:100450000000B70083160000300883160000A400D7
:1004600083160000310883160000A900A50083163A
:100470000000320883160000AA00A60083160000C0
:10048000330883160000AB00A7002A08A6002B083B
:10049000A7002408A800A400A0072908A5000318A5
:1004A000250FA10726080318260FA20727080318FF
:1004B000270FA3072008FD002108FE002208FF00E7
:1004C00023080800831256088312BA0083125708C3
:1004D0008312BB00831258088312BC00BD01831233
:1004E00059088312BE0083125A088312BF00C0014C
:1004F000C1013E08F9003F08FA000030FB0000305F
:10050000FC003A08FD003B08FE003C08FF000030FC
:10051000AC248312BD007F08BC007E08BB007D08B0
:10052000BA00BE073B0803183B0FBF073C0803187F
:100530003C0FC0073D0803183D0FC1070310410CD5
:10054000BD00400CBC003F0CBB003E0CBA00831247
:10055000D90083123B088312DA0059088312BA00CB
:1005600083125A088312BB0003303B02031DBA2AD0
:1005700021303A02031CC12A831285161211051577
:10058000102B013083123B02031DC82A2C303A0283
:100590000318CF2A8312851612110511102B83120E
:1005A000BA018312851ED62A8312BA0A83123A0828
:1005B000003003190130BB00BA003A0C0318E22ADC
:1005C00083128512031CE62A8312851683121215E4
:1005D000831259088312BA0083125A088312BB008F
:1005E000D430BA07FE300318FF30BB073A08FD00CD
:1005F0003B08FE004030FF000030AD238312BB00FB
:100600007F08BA007D30FD000030FE003A08FF0090
:100610003B0842258312BB007F08BA008312930077
:100620000800D930FE000530FF00803000000000D7
:100630007A250000000083120000AF007F08AE00A2
:10064000DB30B0000530B100831200002E08B2008C
:100650002F08B300FF30AE07031CAF03330832048A
:100660000319A92B04303007B200B301B30D3108D0
:10067000B3073208FE003308FF008030000000009E
:100680007A250000000083120000B5007F08B40046
:100690003008FE003108FF008030000000007A259D
:1006A0000000000083120000B700B3007F08B20012
:1006B000B60002303007B200B301B30D3108B30702
:1006C0003208FE003308FF008030000000007A2569
:1006D0000000000083120000B300B9007F08B800DA
:1006E000B200831200003408B8003508B900FF30AA
:1006F000B407031CB503390838040319A22B3608C4
:10070000FE003708FF008030000000009B2500003D
:10071000000083120000B800320883120313840023
:1007200083138312000033188317380883120313CE
:10073000800083120000B60A0319B70AB20A03192F
:10074000B30A712B063083120000B0070318B10AF8
:10075000242B00000000062D080083120000C500B5
:100760007F0883120000C80083120000C4007E08C6
:10077000C7007D0883120000CA0083120000C60073
:10078000450883120000C900831200004708831245
:100790000000CB0083120000480883120000C40050
:1007A000831200004A0883120000C500FF004408BD
:1007B00000000000AE250000000083120000C5000C
:1007C0007F08C40083120000CC008312000045089B
:1007D00083120000CD0083120000C40083120000C9
:1007E000480883120000C500831200004B088312E2
:1007F0000000C600FF00450800000000AE25000014
:1008000000007F0883120000C50083120000490821
:1008100083120000C600831200004A088312000001
:10082000C700FF00460800000000AE2500000000E1
:100830007F0883120000C600C5074508C4074408A6
:1008400083120000CD004C0883120000C400831204
:1008500000004D0883120000C5004408FF00450851
:10086000080083129F18312C1E088312DB00DC0164
:100870005B08DC00DB0183161E088312BA00BB0193
:100880003A088312DB040030DC0483129F148312C5
:1008900056088312BA00831257088312BB008312D2
:1008A00058088312BC00BD013A088312D502831296
:1008B0003B08031C3B0A03195F2C8312D6028312E8
:1008C0003C08031C3C0A0319672C8312D7028312CD
:1008D0003D08031C3D0A03196F2C8312D8028312B2
:1008E0005B088312BA0083125C088312BB00BC0150
:1008F000BD013A08F9003B08FA000030FB00003067
:10090000FC003A08FD003B08FE000030FF0000300C
:1009100021208312BD007F08BC007E08BB007D083B
:10092000BA008312D50783123B0803183B0A031948
:100930009B2C8312D60783123C0803183C0A031928
:10094000A32C8312D70783123D0803183D0A03190D
:10095000AB2C8312D807080083120000A3007F0885
:10096000A2007E08A1007D08A0007C08A7007B08EB
:10097000A6007A08A5007908A400A801A901AA0187
:10098000AB012030AC008312000023088039031D26
:100990000130AD000310A00DA10DA20DA30D031099
:1009A000A80DA90DAA0DAB0D2D08031D28142708AD
:1009B0002B02031DE52C26082A02031DE52C250821
:1009C0002902031DE52C24082802031CF82C83129D
:1009D00000002408A8022508031C250FA9022608E8
:1009E000031C260FAA022708031C270FAB022014A2
:1009F00083120000AC032C08031DC32C2008FD004B
:100A00002108FE002208FF00230808001E26F32507
:100A100014260526272683120B178B1783125F08CF
:100A200003190E2DDF01640083125D038312C200DF
:100A30008312DD0083124208031D292D3230FE008F
:100A40000630FF0080309B258312C2008312DD0038
:100A5000312483125E088312C200C203420883124B
:100A6000DE0083124208031D0E2D3330FE000630D7
:100A7000FF0080309B258312C2008312DE006222B9
:100A80000E2D080083160000B9007F08B8007E080C
:100A9000BB007D08BA00BC01BD011030BE0083164A
:100AA000000039088039031D0130BF000310B80D64
:100AB000B90D0310BC0DBD0D3F08031D3C143B08D0
:100AC0003D02031D652D3A083C02031C702D831660
:100AD00000003A08BC023B08031C3B0FBD0238145F
:100AE00083160000BE033E08031D4F2D3808FF008B
:100AF00039080800003A0319822D803A03198C2D19
:100B0000FF0100347E08840083137F1883170008D8
:100B1000FF00840A0008080000000000A925FD006D
:100B2000FE0FFF03FF0A00000000A925FC007D085E
:100B3000FF007C080800003A0319A22D803A03192F
:100B4000A92D00347E08840083137F1883170008C2
:100B500008007F088A007E088200080083120000D7
:100B6000CE007F08CF00D001D101D201083083121E
:100B7000000052020318D32D0310D00DD10DCE1F4B
:100B8000CA2D0030D4004F08D300D00754080318F2
:100B9000540FD107831200004E08D3000310530DE9
:100BA000CE00D20AB62D831200005008FF00510873
:100BB000080004340034023400345D34003402345C
:100BC0000034343406345F340034013400342E34BD
:100BD000063455340034043400343534063460347B
:100BE00000340134003483169F01073083129900CA
:100BF0008316051683120512831685128312851239
:100C00008316051183120511080083121210921029
:100C100092111212921212131215FF3083169200C3
:100C20000F30831295000800831681128111011480
:100C30008110011583120B118B16080083160F16F5
:100C40008F160F170F1483160F1D232E0800383030
:100C500083169F008D3083129F00080000340034FB
:0C0C6000003400340534FA340034003451
:02400E00DC33A1
:00000001FF
