:020000040000FA
:100000000000CD2800340034F200030E8301F1001B
:100010000A088A01F00004088316B300E130831255
:1000200081000B1101308312E30083163308831221
:10003000840070088A008301710E8300F20E720E34
:1000400009001A25E9241025FF24232583120B1704
:100050008B17831263080319292805308312620263
:1000600003187E286208573E8316A8000030031844
:10007000013EA900280883128400831383162918DF
:100080008317831200088316AA002A08031D642818
:10009000831262082F3E8316AA0005300318013E22
:1000A000AB002A08FE002B08FF008030AB2483162B
:1000B000AC00280883128400831383162918831741
:1000C0002C08831280007E2883162808831284005F
:1000D0008313831629188317831200088316AA0036
:1000E000AA03280883128400831383162918831710
:1000F0002A08831280008312E20A2D280530831219
:1001000062020318C728003083128A008E308312DF
:100110006207031C8D2883128A0A8200932895287F
:1001200029289728992804222928692129280C237D
:10013000292883126908003003190130E900690891
:1001400003192928831260088316A8008316AE00BD
:10015000831267088316AF00B00100308316A90030
:10016000AE30A800AA012808FE002908FF000030D0
:10017000132405308316A9003830A8008030AA0067
:100180002808FE002908FF002A08132429288312C2
:10019000E2018312E30129280800CF30FE0003307A
:1001A000FF008030000000008A2400000000831659
:1001B0000000B5007F08B400D130B6000330B700AE
:1001C000831600003408B8003508B900FF30B407C2
:1001D000031CB503390838040319652904303607B0
:1001E000B800B901B90D3708B9073808FE00390859
:1001F000FF008030000000008A2400000000831609
:100200000000BB007F08BA003608FE003708FF0078
:100210008030000000008A240000000083160000E7
:10022000BD00B9007F08B800BC0002303607B80036
:10023000B901B90D3708B9073808FE003908FF00C1
:100240008030000000008A240000000083160000B7
:10025000B900BF007F08BE00B800831600003A084E
:10026000BE003B08BF00FF30BA07031CBB033F08BA
:100270003E0403195E293C08FE003D08FF00803063
:1002800000000000AB240000000083160000BE0048
:10029000380883120313840083138316000039186F
:1002A00083173E0883120313800083160000BC0AE4
:1002B0000319BD0AB80A0319B90A2D290630831695
:1002C0000000B6070318B70AE02800000000212844
:1002D000080083125C0E0F398316A20083125D0E94
:1002E0008316A100F039A204A10683125E0E8316C4
:1002F000A000F039A104A00683125F0E8316A300AC
:10030000F039A004A3060310A30CA00CA10CA20CAE
:10031000831260088316A400831261088316A50067
:10032000A601A7012408F9002508FA000030FB0007
:100330000030FC002208FD002108FE002008FF001C
:10034000230875238316A3007F08A0007E08A10060
:100350007D08A200A40721080318210FA507200883
:100360000318200FA60723080318230FA70703105D
:10037000270CA300260CA000250CA100240CA20031
:100380008312E000831621088312E10060088316BF
:10039000A200831261088316A10000302102031D10
:1003A000D329FB302202031CDC2964308312E700CE
:1003B000FF3083129300032A003083162102031DAD
:1003C000E329803022020318EA298312E70183120D
:1003D0009301032A831260088312E7008316A200A8
:1003E000831261088316A1000030FD000030FE007A
:1003F00083126008FF00610852248316A1007F0861
:10040000A20083129300080083129F18042A1E087A
:100410008316A000A200A101A30183161E08831663
:10042000A200A1010030A2042008A10483129F149D
:1004300003108316210CA000220CA3000310A00CB3
:10044000A30C83125C0E0F398316A20083125D0E7B
:100450008316A100F039A204A10683125E0E831652
:10046000A400F039A104A40683125F0E8316A50030
:10047000F039A404A5060310A50CA40CA10CA20C31
:1004800022088312DC0283162108031C210A0319A7
:100490004B2A8312DD0283162408031C240A031945
:1004A000532A8312DE0283162508031C250A03192A
:1004B0005B2A8312DF0283162308FD002008FE005A
:1004C0002308FF00200888228316A000A1007F08CF
:1004D000A200A300A401A50123088312DC07831650
:1004E00020080318200A0319772A8312DD078316D0
:1004F00024080318240A03197F2A8312DE078316AF
:1005000025080318250A0319872A8312DF07080024
:1005100083120000BF007F0883120000C200831214
:100520000000BE007E08C1007D0883120000C400E8
:1005300083120000C0003F0883120000C300831232
:100540000000410883120000C50083120000420829
:1005500083120000BE0083120000440883120000D2
:10056000BF00FF003E0800000000BE2400000000A5
:1005700083120000BF007F08BE0083120000C60087
:10058000831200003F0883120000C700831200009E
:10059000BE0083120000420883120000BF008312D5
:1005A0000000450883120000C000FF003F08000063
:1005B0000000BE24000000007F0883120000BF007E
:1005C00083120000430883120000C0008312000061
:1005D000440883120000C100FF0040080000000032
:1005E000BE24000000007F0883120000C000BF0787
:1005F0003F08BE073E0883120000C700460883126A
:100600000000BE0083120000470883120000BF00F4
:100610003E08FF003F080800831265088312640645
:100620000319742B0A308312680203186A2B0330F3
:1006300083128A00223083126807031C212B831245
:100640008A0A82002C2B452B452B452B452B452B0D
:10065000452B452B452B6A2B831205108312E80A84
:1006600083126408203E8316A20000300318013E66
:10067000A100220883128400831383162118831794
:10068000831200088316AD00742B8312680383164F
:10069000A2000030A0000130A1002208003C031994
:1006A000572B8316A10DA00D013E031C512B831661
:1006B0002D088316A200A1050030A0052008210402
:1006C0000319652B83120514672B831205108312FF
:1006D000E80A742B831205148312E8018312E40ADA
:1006E00064080F3A0319E401080083120000B30004
:1006F0007F08B2007E08B1007D08B0007C08B7001A
:100700007B08B6007A08B5007908B400B801B901D1
:10071000BA01BB012030BC008312000033088039CD
:10072000031D0130BD000310B00DB10DB20DB30DAE
:100730000310B80DB90DBA0DBB0D3D08031D3814DB
:1007400037083B02031DAE2B36083A02031DAE2BC1
:1007500035083902031DAE2B34083802031CC12BA7
:10076000831200003408B8023508031C350FB902A3
:100770003608031C360FBA023708031C370FBB02BA
:10078000301483120000BC033C08031D8C2B30087E
:10079000FD003108FE003208FF00330808000B346A
:1007A00000343B34053463340034013400342A34DB
:1007B000053457340034053400343C340534643493
:1007C0000034013400343D340534653400340134E0
:1007D00000343E34053466340034013400340234CD
:1007E00000346034003402340034343405345C3472
:1007F0000034043400343F340534673400340134A9
:100800000034403405346834003401340034413459
:1008100005346934003401340034423405346A3418
:100820000034013400348316A2007F08A1007E0842
:10083000A00083162008FE002108FF002208AB2438
:100840008316A30023080319512C8312650883160D
:10085000A3008312E50A83162308203EA30000307C
:100860000318013EA4002008FE002108FF00220812
:10087000AB248316A500A00A0319A10A0319A20A32
:1008800023088312840083138316241883172508F2
:1008900083128000831265080F3A031D192CE501AD
:1008A000192C080083120000C9007F08C8007E08C8
:1008B000CB007D08CA00CC01CD011030CE008312E0
:1008C000000049088039031D0130CF000310C80D16
:1008D000C90D0310CC0DCD0D4F08031D4C144B0852
:1008E0004D02031D752C4A084C02031C802C8312F8
:1008F00000004A08CC024B08031C4B0FCD024814E1
:1009000083120000CE034E08031D5F2C4808FF0031
:1009100049080800003A0319922C803A03199C2CCC
:10092000FF0100347E08840083137F1883170008BA
:10093000FF00840A0008080000000000B924FD0040
:10094000FE0FFF03FF0A00000000B924FC007D0831
:10095000FF007C080800003A0319B22C803A031902
:10096000B92C00347E08840083137F188317000895
:1009700008007F088A007E088200080083120000B9
:10098000D0007F08D100D201D301D40108308312F6
:10099000000054020318E32C0310D20DD30DD01F16
:1009A000DA2C0030D6005108D500D20756080318BB
:1009B000560FD307831200005008D5000310550DC1
:1009C000D000D40AC62C831200005208FF0053083E
:1009D000080083169F0107308312990083160516BD
:1009E0008312051283168512831285128316051051
:1009F0008312051483160511831205110800831252
:100A00001210921092111212921212131215FF303C
:100A1000831692000C3083129500803093000800FA
:100A200083168112811101148110011583120B119B
:100A30008B16080083160F168F160F170F148316C8
:100A40000F1D1F2D0800383083169F008D30831234
:100A50009F000800003400340034003400340534B2
:100A6000FA3402340234FA340034003400340034EE
:100A70000D340A34003400340034003400340034BF
:060A8000003400340034D4
:02400E00D433A9
:00000001FF
