:020000040000FA
:100000000000CB2800340034F200030E8301F1001D
:100010000A088A01F00004088312B600E130831256
:1000200081000B1101308312B7008312360883124E
:10003000840070088A008301710E8300F20E720E34
:1000400009005122352247225A228316A001672136
:1000500083120B178B178312370803192B2883126F
:1000600085168316BE0183163E08B83E8312B10082
:1000700000300318013EB20031088312840083135C
:10008000831232188317831200088312B3003308D7
:10009000031D662883163E08673E8312B3000230B4
:1000A0000318013EB4003308FE003408FF0080301E
:1000B00002228312B5003108831284008313831255
:1000C0003218831735088312800083288312310881
:1000D000831284008313831232188317831200085B
:1000E0008312B300B3033108831284008313831295
:1000F000321883173308831280008316BE0A063035
:100100003E02031C3328063083163E020318C5281E
:10011000003083128A00933083163E07031C922816
:1001200083128A0A8200C728C728C728C7289928A7
:100130009B286721C72841308316A0004430A100C6
:100140004330A2003A30A3003130A4003030A50083
:100150003230A6003430A7000D30A8000A30A900C4
:100160005030AA005730AB004D30AC003A30AD00F3
:100170002530AE003130AF003030B000B1000D306E
:10018000B2000A30B300B401C7288312B70183124A
:1001900085122B2808001530FE000230FF00803049
:1001A00000000000E1210000000083120000A10017
:1001B0007F08A0001730A2000230A30083120000C5
:1001C0002008A4002108A500FF30A007031CA103FC
:1001D000250824040319632904302207A400A5017B
:1001E000A50D2308A5072408FE002508FF00803080
:1001F00000000000E1210000000083120000A700C1
:100200007F08A6002208FE002308FF0080300000BF
:100210000000E1210000000083120000A900A500F9
:100220007F08A400A80002302207A400A501A50DA4
:100230002308A5072408FE002508FF0080300000E1
:100240000000E1210000000083120000A500AB00C7
:100250007F08AA00A400831200002608AA0027082D
:10026000AB00FF30A607031CA7032B082A040319C1
:100270005C292808FE002908FF00803000000000EB
:1002800002220000000083120000AA00240883124A
:1002900003138400831383120000251883172A0890
:1002A00083120313800083120000A80A0319A90A0D
:1002B000A40A0319A50A2B29063083120000A207FD
:1002C0000318A30ADE28000000002128080083127A
:1002D0003908A03E8312AC0000300318013EAD0087
:1002E0002C0883128400831383122D188317831222
:1002F00000088312AE00AC002E080319DE290A3074
:10030000831238020318C429013083128A008F3007
:1003100083123807031C8E2983128A0A82009929C6
:100320009E299E299E299E299E299E299E299E2995
:10033000C429831205108312B80AE02983123803F6
:100340008312AD000030AF000130AE002D08003C3C
:100350000319B0298312AE0DAF0D013E031CAA296B
:1003600083122C08AD00B0012E082D05AC002F081B
:1003700030052C040319BF2983120514C1298312E7
:1003800005108312B80AE029831205148312B801FC
:1003900083123908A03E8312AC0000300318013EDE
:1003A000AD002C0883128400831383122D18831749
:1003B0000030831280008312B90AE0298312B90148
:1003C0000800003A0319E929803A0319F329FF01CB
:1003D00000347E08840083137F1883170008FF0011
:1003E000840A00080800000000001022FD00FE0F33
:1003F000FF03FF0A000000001022FC007D08FF0040
:100400007C080800003A0319092A803A0319102AC7
:1004100000347E08840083137F18831700080800C7
:100420007F088A007E088200080005340034023408
:100430000034373400340134003461340234B834C9
:1004400000340634003403340034383400340134CA
:1004500000346D34023439340034013400346E34E5
:1004600002343A3400340134003483169F010730DB
:1004700083129900831605168312051283168512BE
:100480008312851283160510831205140800831643
:100490008112811101148110011583120B118B1629
:1004A000080083160F168F160F170F1483160F1DD3
:1004B000562A0800383083169F000D3083129F00A3
:1004C00008000034003400340034003400340A34AE
:0E04D0003234013402340134FA340034003482
:02400E00D433A9
:00000001FF
